:020000040800F2
:1000000000000820D90C0008490A00084B0A000823
:100010004D0A00084F0A0008510A000800000000BD
:10002000000000000000000000000000530A00086B
:10003000550A000800000000570A0008590A000885
:10004000290D0008290D0008290D0008290D0008B8
:10005000290D0008290D0008290D0008290D0008A8
:10006000290D0008290D0008290D0008290D000898
:10007000290D0008290D0008290D0008290D000888
:100080005D0A0008690A0008290D0008290D00080A
:10009000290D0008290D0008290D0008290D000868
:1000A000290D0008290D0008290D0008290D000858
:1000B000290D0008290D0008290D0008290D000848
:1000C000290D0008290D0008290D0008290D000838
:1000D000290D0008290D0008750A0008990A000872
:1000E000290D0008290D0008290D0008290D000818
:1000F000290D0008290D0008290D0008290D000808
:10010000290D0008290D0008290D0008290D0008F7
:10011000290D0008290D0008290D0008290D0008E7
:10012000290D0008290D0008290D0008290D0008D7
:10013000290D0008290D0008290D0008290D0008C7
:10014000290D0008290D0008290D0008290D0008B7
:10015000290D0008290D0008290D0008290D0008A7
:10016000290D0008290D0008290D0008290D000897
:10017000290D0008290D0008290D000800000000C5
:10018000290D0008290D0008290D0008290D000877
:10019000290D0008290D0008290D0008290D000867
:1001A000290D0008290D0008290D0008290D000857
:1001B000290D0008290D0008290D0008290D000847
:1001C000290D0008290D000800000000290D000875
:1001D000290D0008290D0008290D0008290D000827
:1001E000290D0008290D0008290D0008290D000817
:0801F000290D0008290D00088B
:1002000010B5054C237833B9044B13B10448AFF350
:1002100000800123237010BDB80000200000000002
:100220002C56000808B5034B1BB103490348AFF334
:10023000008008BD00000000BC0000202C56000813
:10024000034613F8012B002AFBD1181A0138704716
:1002500001F0FF01102A2BDB10F0070F08D010F877
:10026000013B013A8B422DD010F0070F42B3F6D17B
:10027000F0B441EA012141EA014122F007047FF094
:1002800000070023F0E80256083C85EA010586EAEB
:10029000010685FA47F5A3FA87F586FA47F6A5FA27
:1002A00087F68EB9EED1F0BC01F0FF0102F0070233
:1002B00032B110F8013B013A83EA010313B1F8D1DE
:1002C0000020704701387047002D06BF35460338BF
:1002D000073815F0010F07D1013015F4807F02BFF8
:1002E000013015F4C03F0130F0BC0138704700BF49
:1002F00053B94AB9002908BF00281CBF4FF0FF318D
:100300004FF0FF3000F070B9ADF1080C6DE904CE8C
:1003100000F006F8DDF804E0DDE9022304B07047E0
:100320002DE9F047089E0D4604460F46002B4AD1A2
:100330008A42944665D9B2FA82F343B102FA03FCC9
:10034000C3F120029F4020FA02F217439C404FEA7B
:100350001C4E1FFA8CF5B7FBFEF1220C0EFB117739
:1003600042EA074201FB05F090420AD91CEB020267
:1003700001F1FF3780F01C81904240F2198102396F
:100380006244121AA4B2B2FBFEF00EFB102244EA41
:10039000024400FB05F5A5420AD91CEB040400F158
:1003A000FF3280F00781A54240F2048164440238A4
:1003B00040EA0140641B00211EB1DC400023C6E975
:1003C0000043BDE8F0878B4208D9002E00F0ED8095
:1003D0000021C6E900050846BDE8F087B3FA83F1BD
:1003E000002949D1AB4202D3824200F2F880841A3C
:1003F00065EB030201201746002EE2D0C6E9004754
:10040000DFE702B9FFDEB2FA82F3002B40F0908002
:100410008A1A4FEA1C471FFA8CFE0121B2FBF7F53E
:1004200007FB1520220C42EA00420EFB05F0904229
:1004300008D91CEB020205F1FF3802D2904200F20B
:10044000CB804546121AA4B2B2FBF7F007FB10228C
:1004500044EA02440EFB00FEA64508D91CEB040446
:1004600000F1FF3202D2A64500F2BB801046A4EB99
:100470000E0440EA05409FE7C1F120078B4022FAB5
:1004800007FC4CEA030C05FA01F420FA07F3FD40DF
:100490004FEA1C492343B5FBF9F81FFA8CFE09FB10
:1004A00018551C0C44EA054408FB0EF5A54202FA57
:1004B00001F200FA01F00BD91CEB040408F1FF3A39
:1004C00080F08880A54240F28580A8F1020864444B
:1004D000641B9DB2B4FBF9F309FB134445EA0444E1
:1004E00003FB0EFEA64508D91CEB040403F1FF35FF
:1004F0006CD2A6456AD9023B644443EA0843A3FB95
:100500000295A4EB0E04AC42C846AE4656D353D077
:1005100056B1B0EB080264EB0E0404FA07F7CA40C8
:10052000CC401743C6E9007418460021BDE8F087A7
:10053000C3F1200102FA03FC20FA01F225FA01F1CD
:100540009D402A434FEA1C471FFA8CFEB1FBF7F08F
:1005500007FB1015110C41EA054100FB0EF58D4219
:1005600004FA03F408D91CEB010100F1FF382FD283
:100570008D422DD902386144491B92B2B1FBF7F587
:1005800007FB151142EA014205FB0EF1914208D921
:100590001CEB020205F1FF3816D2914214D9023D3C
:1005A0006244521A45EA004138E73146304608E7CE
:1005B0003946E6E61046FBE64845A9D2B9EB020803
:1005C00065EB0C0E013BA3E74546EAE72B4694E7B3
:1005D0004046D1E7D0467BE7023D624432E7084619
:1005E0000AE76444023842E7704700BF0E4B07B584
:1005F0001A6B102042F400121A6300221B6B114682
:1006000003F400130193019B00F0E4FB102000F0C1
:1006100013FC00221120114600F0DCFB112003B076
:100620005DF804EB00F008BC00380240F0B58DB076
:1006300014220021434F07A8434D03F08DFD434B87
:10064000384644F281011A6B0024012642F004026C
:100650001A631A6B02F004020192019A1A6B42F0BB
:1006600080021A631A6B02F080020292029A1A6BDD
:1006700042F001021A631A6B02F001020392039A1C
:100680001A6B42F002021A631A6B02F00202049221
:10069000049A1A6B42F008021A631A6B02F00802FD
:1006A0000592059A1A6B42F040021A6300221B6BF6
:1006B00003F040030693069B00F0B0FE284600229C
:1006C000402100F0ABFE4FF40052214B07A9214816
:1006D0000994CDE9072300F0B9FD44F2810307A98D
:1006E0003846CDE90736CDE9094400F0AFFD402397
:1006F00007A92846CDE90736CDE9094400F0A6FD53
:10070000802307A928460994CDE9073400F09EFD0F
:100710004FF4E851022303200994CDE907130A237B
:1007200007A9CDE90A030C4800F090FD4FF40073CF
:1007300007A909480994CDE9073400F087FD0DB0F9
:10074000F0BD00BF00040240001802400038024023
:1007500000001110000802400000024010B588B0EF
:1007600004461422002103A803F0F6FC2268134B70
:100770009A4221D1124C4FF4407201211148236B4F
:1007800043F002032363236B03F002030193019BF5
:100790001223CDE903230323CDE90513042303A981
:1007A000079300F053FD236C43F400132364236C80
:1007B00003F400130293029B08B010BD00540040E4
:1007C000003802400004024010B5B8B034220021C5
:1007D000022407A803F0C0FC1422002102A803F0A1
:1007E000BBFC9022002114A803F0B6FC01F076F9BE
:1007F000264B012104201A6C42F080521A641B6CB3
:1008000003F080530093009B214B1A6842F440424E
:100810001A601B68119403F440430193019B4FF449
:10082000A023CDE907134FF48003CDE90D43D8236E
:10083000CDE90F03092307A8129301F08FF908B13E
:1008400072B6FEE701F052F908B172B6FEE70F2367
:100850004FF4A0520490072102A8CDE902344FF4CE
:100860008053CDE9052301F069FB08B172B6FEE7BC
:10087000084B2D9033901493CDE9260014A801F075
:100880001BFC08B172B6FEE738B010BD003802405C
:1008900000700040804120002DE9F84300F06AFA22
:1008A0004D4DFFF791FFFFF7C1FEFFF79FFE00F0F0
:1008B0004FF9012249494A4801F0BEFE032003F0E6
:1008C0000FFA02F0FFFD2B6800285AD1002B15DB30
:1008D00003F000F9044603F0FDF84FF47A71B0FB21
:1008E000F1F202FB11023F48B4FBF1F103F0C0FA50
:1008F0003D4803F0BDFA3D4803F020FB3C4FDFF8D4
:100900000C813C4E002002F0E5FD2B6800284CD104
:10091000002B31DD4FF47A7403F0DCF8814603F0EC
:10092000D9F8B0FBF4F2B9FBF4F102FB140232483F
:1009300003F09EFA314803F09BFA2C4803F0FEFACC
:100940002B68002B18DD03F0C5F8814603F0C2F8D0
:10095000B0FBF4F2B9FBF4F102FB1402264803F0F9
:1009600087FA274B2748D3F80A20D3F8061003F05C
:100970007FFA1E4803F0E2FA0121304600F053FDF1
:10098000C0E7002BBADB03F0A5F8044603F0A2F899
:100990004FF47A71B0FBF1F202FB11021148B4FB83
:1009A000F1F103F065FA1848A3E7022BE4DD03F048
:1009B00091F8044603F08EF84FF47A71B0FBF1F22F
:1009C00002FB11023846B4FBF1F103F051FA404644
:1009D00003F04EFACDE700BF58000020F0310020B0
:1009E0006402002050560008605600088156000836
:1009F000E3560008000402409E560008AE56000868
:100A000028000020C456000883560008F35600084A
:100A100072B6FEE70B4B82B005201A6C42F0805292
:100A20001A641A6C02F080520092009A5A6C42F4D6
:100A300080425A645B6C03F480430193019B02B0D3
:100A400000F0B6B900380240FEE7FEE7FEE7FEE739
:100A5000FEE770477047704700F098B9014800F012
:100A600035BB00BF24010020014800F02FBB00BFB0
:100A70008401002008B5074B1B68DA69D20603D54C
:100A800010221A6203F002F80248BDE8084001F0A3
:100A900057BF00BFE4010020014801F051BF00BF73
:100AA0006402002070B50D4614460E46731B9C422E
:100AB00001DC204670BDAFF3008006F8010BF5E7BE
:100AC00070B50D4614460E46731B9C4201DC204651
:100AD00070BD16F8010B03F0F3F8F5E74FF0FF30A7
:100AE00070474FF4005300204B607047012070475F
:100AF000002070470B4A0346116810B509B90A492E
:100B00001160106809490A4C0344091B8B4206D93D
:100B100003F07EFB0C2303604FF0FF3010BD136029
:100B2000FCE700BF20010020403300200000082027
:100B300000040000054BD3F8882042F47002C3F88B
:100B400088204FF000629A60704700BF00ED00E01F
:100B500008B50C484FF4E1330B4AC0E900230023E9
:100B60000C22C0E9023303614362C0E90523C0E9F6
:100B7000073302F00FFA18B1BDE80840FFF748BF8D
:100B800008BD00BF6402002000480040142200217C
:100B900030B58BB005460DEB020003F0DDFA2B6893
:100BA000454A93425DD1454B60244FF0030C4448C5
:100BB0001A6C05A942F400321A641A6C02F400326D
:100BC0000192019A1A6B42F008021A631B6B03F040
:100BD00008030293029B0223CDE905430723394C06
:100BE000CDE908C300F032FB4FF00063DFF8E4E02A
:100BF0004FF480622046C4E900E30023C4E90233D5
:100C0000C4E90423C4E90633C4E9083300F04CF90D
:100C100008B1FFF7FDFE4FF000632B49EC66402062
:100C2000A5634FF48062294CC4E900130023C4E992
:100C300002032046C4E90423C4E90633C4E90833A7
:100C400000F032F908B1FFF7E3FE2620012202216D
:100C5000AC66A56300F0BEF8262000F0EDF80BB0FE
:100C600030BD1B4A9342FAD1144B032405A9144802
:100C70001A6C42F480221A641A6C02F480220392E5
:100C8000039A1A6B42F008021A634FF440721B6B0E
:100C900003F008030493049B0223CDE905230723F3
:100CA000CDE9084300F0D2FA27200122214600F0C6
:100CB00091F82720D1E700BF0044004000380240EF
:100CC000000C024024010020A060024084010020AA
:100CD0000048004088600240DFF834D0002103E083
:100CE0000C4B5B58435004310B480C4B42189A4252
:100CF000F6D30B4A02E0002342F8043B094B9A4228
:100D0000F9D3FFF717FF03F089FAFFF7C5FD704726
:100D100000000820605A000800000020B8000020F1
:100D2000B800002040330020FEE7000038B50E4B2D
:100D300005461A784FF47A73B3FBF2F30B4A106846
:100D4000B0FBF3F000F086F8044658B90F2D09D82F
:100D5000024629464FF0FF3000F03CF8044B204695
:100D60001D6038BD0120FCE70400002000000020C9
:100D70000800002008B5032000F01AF80020FFF753
:100D8000D5FFFFF747FE002008BD0000034A044BD3
:100D900011681B780B441360704700BFE402002009
:100DA00004000020014B1868704700BFE4020020D7
:100DB00007490302CA6803F4E06322F4E062120404
:100DC000120C134343F0BF6343F40033CB6070470E
:100DD00000ED00E0164B30B5DC68C4F30224C4F12A
:100DE0000703251D042B28BF0423062D4FF0FF35D4
:100DF0008CBF033C002405FA03F3002805FA04F530
:100E000021EA030322EA050203FA04F343EA020398
:100E10004FEA0313DBB206DB00F1604000F56140EE
:100E200080F8003330BD00F00F00024A1354F9E798
:100E300000ED00E014ED00E0002807DB410901238C
:100E400000F01F00024A834042F82130704700BF83
:100E500000E100E00138B0F1807F0BD24FF0E023D9
:100E6000054AF0215861002082F82310072298617A
:100E70001A6170470120704700ED00E003681821F7
:100E8000DAB223F47F73103A23F00303B2FBF1F1DB
:100E900010B55F2A034C88BF0433615C8365C1656C
:100EA000184610BD1B57000870B50446FFF77AFFBF
:100EB0000546002C71D00023226884F834300223C8
:100EC00084F83530136823F0010313602268136837
:100ED000D8072ED413683248A1691840D4E90135E7
:100EE0002B43E5682B4325692B4365692B43E56953
:100EF0000B432B43256A2B430343606A042802BF3C
:100F0000D4E90B5635432B4304281360536923F06F
:100F1000070343EA000332D1A06AE56A034375B3CD
:100F200091B9012820D030F0020128D1E90126D55D
:100F30001DE0FFF737FF401B0528C7D920230320FA
:100F4000636584F8350070BDB1F5005F13D10328E7
:100F500015D801A151F820F06F0F00082D0F0008DF
:100F60006F0F0008690F0008B5F1C07F07D140235B
:100F700001206365E5E70228F9D90328D6D053613B
:100F80002046FFF77BFFE26D3F2393408360002004
:100F90000123606584F83530D5E70120D3E700BF31
:100FA0003F8010E070B590F83440866D012C34D04D
:100FB0000124002580F8344090F83540012C4FF092
:100FC000020428D180F8354004684565256825F479
:100FD0008025256063608368402B19D1A260E160A1
:100FE000C26D3F239340B360236843F01603236030
:100FF000636943F080036361036C1BB1236843F0B2
:10100000080323602368002043F00103236070BDC0
:10101000A160E260E4E780F834500220F7E770B5A1
:101020000446866DFFF7BEFE054694F83530022B68
:1010300006D0802301206365002384F8343070BD1E
:1010400023681A6822F016021A605A6922F0800298
:101050005A61226C0AB9A26C1AB11A6822F008020D
:101060001A601A6822F001021A6023681B6813F0E4
:1010700001030AD1E16D3F2218468A40B260012285
:1010800084F8343084F83520D9E7FFF78BFE401B15
:101090000528EAD9202303206365002384F835005E
:1010A00084F83430CBE790F83530022B03D080231E
:1010B0004365012070470268052380F83530002021
:1010C000136823F001031360704700000023F7B595
:1010D000019308225B4B0446856D1F68C36D2E6823
:1010E0009A4032420CD001680868400708D5086869
:1010F00020F004000860AA60626D42F0010262659F
:1011000001229A40324208D021684969090604D573
:10111000AA60626D42F00202626504229A40324285
:1011200008D021680968880704D5AA60626D42F07A
:101130000402626510229A40324210D02368196876
:1011400009070CD5AA601A68500337D51B68190324
:1011500001D4236C00E0A36C0BB120469847E16DED
:1011600020228A4032423AD023681868C60636D513
:10117000AA6094F83520052A1A6827D122F01602B1
:101180001A605A6922F080025A61226C0AB9A26C74
:101190001AB11A6822F008021A603F238B40AB6034
:1011A000002384F83430012384F83530236D002B7C
:1011B00045D0204603B0BDE8F04018471A68D20574
:1011C000C7D41A6822F008021A60C2E7500327D574
:1011D0001B68190331D4636C0BB120469847636DCB
:1011E0006BB3636DDA0719D54FF416532268B7FB5A
:1011F000F3F7052384F83530136823F001031360F7
:10120000019B0133BB42019302D81368DB07F7D47B
:10121000002384F83430012384F83530E36CC6E7CA
:101220001A6812F4807208D1196821F0100119604F
:10123000012384F8342084F83530E36BCCE703B025
:10124000F0BD00BF00000020406D70472DE9F74F52
:101250000023DFF8B4816A4ADFF8B09101240D68F9
:101260009C4004EA0506AC4340F0B1804C684FEA6C
:10127000430E032524F0100C05FA0EF50CF1FF3790
:10128000ED43012F10D8876807EA050ACF6807FAEF
:101290000EF747EA0A078760476827EA060A270920
:1012A0009F4047EA0A074760C768BCF1020F07EA98
:1012B000050A8F6807FA0EF747EA0A07C76016D1D2
:1012C0004FEAD30A03F0070B4FF00F0C00EB8A0A2A
:1012D0004FEA8B0BDAF820700CFA0BFC27EA0C0CA7
:1012E0000F6907FA0BF747EA0C07CAF8207007687E
:1012F0002F4004F0030505FA0EF53D430560E500B7
:1013000065D5D8F8445023F0030703F0030C45F4E7
:10131000804507F180474FEA8C0CC8F8445007F528
:101320009C37D8F8445005F480450195019D0F2560
:10133000D7F808E005FA0CF52EEA050E314DA84263
:101340004CD005F58065A8424AD005F58065A842D5
:1013500048D005F58065A84246D005F58065A842CD
:1013600044D0484544D005F50065A84242D005F573
:101370008065A84240D005F58065A8423ED005F5BD
:101380008065A8420CBF09250A2505FA0CF514F45E
:10139000803F45EA0E05BD606FEA060715680CBF81
:1013A0003D40354314F4003F156055680CBF3D4087
:1013B000354314F4801F556095680CBF3D4035439C
:1013C000A4029560D56854BF3D403543D5600133D4
:1013D000102B7FF443AF03B0BDE8F08F0025D4E7B6
:1013E0000125D2E70225D0E70325CEE70425CCE787
:1013F0000525CAE70625C8E70725C6E70825C4E787
:10140000003C01400000024000380240001402404D
:101410000369194214BF0120002070470AB181619D
:1014200070470904FBE743690B4218BF0904816157
:10143000704703689A69910701D500229A629A69F8
:10144000D20703D49A6942F001029A617047000002
:1014500030B5039DC1F30901046845EA02426068A2
:101460001A43044B43EA55530A4320EA030002435C
:10147000626030BDFF63FF03F8B5036804460E46A3
:101480001746986910F0100016D1F8BD721C14D0E0
:10149000FFF788FCC01B864200D36EB9636C43F033
:1014A00020036364202384F84130002384F8423011
:1014B00084F840300120E8E72568AB699B06E5D554
:1014C000102320262046EB61EE61FFF7B2FF6B6828
:1014D00023F0FF7323F48B3323F4FF7323F0010312
:1014E0006B60636C43F004036364002384F8416021
:1014F00084F8403084F84230DCE770B504460D468D
:10150000164623689B699B0701D5002070BD3246B3
:1015100029462046FFF7B0FFA0B96A1CF1D0FFF7BB
:1015200041FC801BA84201D8002DEAD1636C43F036
:1015300020036364202384F84130002384F8423080
:1015400084F840300120E1E72DE9F041069F044690
:10155000884616461D462268936938EA03030CBF85
:1015600001230023B34201D0002015E06B1CF3D00F
:10157000FFF718FCC01BA84201D8002DEBD1636C0B
:10158000012043F020036364202384F841300023CA
:1015900084F8423084F84030BDE8F0812DE9F34111
:1015A0001E46184B054614460093F2B24FF0807366
:1015B000DDE90878FFF74CFF284642463946FFF739
:1015C0009CFF18B1012002B0BDE8F081012E2B680C
:1015D0000DD1E4B20022802128469C623B46CDF822
:1015E0000080FFF7B1FF003818BF0120EBE7220AA7
:1015F000394628469A624246FFF77FFF0028E1D12C
:101600002B68E6E7002000802DE9F3411E46184BC9
:10161000054614460093F2B20023DDE90878FFF78F
:1016200017FF284642463946FFF767FF18B10120E9
:1016300002B0BDE8F081012E2B680DD1E4B200228A
:10164000402128469C623B46CDF80080FFF77CFF96
:10165000003818BF0120EBE7220A394628469A6273
:101660004246FFF74AFF0028E1D12B68E6E700BFBA
:101670000020008070B504460D46164623689B691D
:101680009B0601D5002070BD324629462046FFF753
:10169000F3FE90B9FFF786FB801BA84201D8002D0E
:1016A000ECD1636C43F020036364202384F8413061
:1016B000002384F8423084F840300120E3E710B57D
:1016C000044600284AD090F8413003F0FF021BB9CD
:1016D00080F84020FFF742F8242384F84130236843
:1016E0001A6822F001021A60626822F070621A61C0
:1016F0009A6822F400429A60D4E90221012924D197
:1017000042F400429A605A68002042F0007242F4AB
:1017100000425A60DA6822F40042DA60D4E9042117
:101720000A43A16942EA0122DA60D4E907210A43A7
:101730001A601A6842F001021A602023606484F87B
:101740004130206384F8420010BD42F40442022973
:101750009A60D8D14FF400625A60D4E70120F3E7D1
:101760002DE9F04F85B09B4604460F46BDF83C304E
:101770009246DDF84090039390F84130202B40F0E2
:10178000A3800E9B0BB1039B33B94FF400736364CA
:10179000012005B0BDE8F08F90F84030012B00F03B
:1017A0009380012580F84050FFF7FCFA1923009040
:1017B00006462A464FF400412046FFF7C5FE804604
:1017C0000028E5D1212360635246394684F8413030
:1017D000402384F842300E9B606420466362039B82
:1017E000CDE9009663855B46FFF7D8FE10B184F81B
:1017F0004080CDE7638D9BB2FF2B55D9FF224FF080
:1018000080730090228539462046FFF721FE32463C
:1018100049462046FFF771FE0028B9D1636A226865
:1018200013F8011B91626362638D228D013B013AC3
:101830009BB292B26385638D22859BB2ABB1A2B994
:101840004B46802120460096FFF77EFE00289FD160
:10185000638D9BB2FF2B2FD9FF224FF08073009036
:10186000228539462046FFF7F3FD638D9BB2002B9E
:10187000CDD1324649462046FFF7FCFE002887D1ED
:1018800023682021D9615A6822F0FF7222F48B323A
:1018900022F4FF7222F001025A6084F8411084F8A9
:1018A000400084F8420074E7628D4FF000730090AE
:1018B00092B22285D2B2A6E7628D4FF000730090FB
:1018C00092B22285D2B2CCE7022062E72DE9F04F36
:1018D00085B09B4604460F46BDF83C309246DDF885
:1018E0004090039390F84130202B40F0A7800E9B4E
:1018F0000BB1039B33B94FF400736364012005B04F
:10190000BDE8F08F90F84030012B00F09780012562
:1019100080F84050FFF746FA1923009006462A4601
:101920004FF400412046FFF70FFE80460028E5D126
:10193000222360635246394684F84130402384F8BC
:1019400042300E9B606420466362039BCDE90096A3
:1019500063855B46FFF758FE10B184F84080CDE701
:10196000638D9BB2FF2B364B58D9FF2200934FF06B
:101970008073228539462046FFF76AFD4B460022D8
:10198000042120460096FFF7DFFD0028B6D123682A
:101990005A6A636A1A70636A228D0133013A63627C
:1019A000638D92B2013B22859BB26385638D9BB2AE
:1019B000ABB1A2B94B46802120460096FFF7C4FD8B
:1019C00000289BD1638D9BB2FF2B2FD9FF224FF0B4
:1019D00080730090228539462046FFF739FD638DDC
:1019E0009BB2002BCAD1324649462046FFF742FE41
:1019F000002883D123682021D9615A6822F0FF7220
:101A000022F48B3222F4FF7222F001025A6084F831
:101A1000411084F8400084F8420070E7628D009322
:101A20004FF0007392B22285D2B2A3E7628D4FF0DD
:101A30000073009092B22285D2B2CCE702205EE71A
:101A40000024008010B590F84130202BDCB21DD16D
:101A500090F84030012B19D0242380F841300368DE
:101A60001A6822F001021A601A6822F480521A6081
:101A70001A68114319601A6842F001021A600023C3
:101A800080F8414080F84030184610BD0220FCE745
:101A900010B590F84130202BDCB21CD190F84030CA
:101AA000012B18D0242380F8413003681A6822F0F3
:101AB00001021A601A6822F4706242EA0121196078
:101AC0001A6842F001021A60002380F8414080F851
:101AD0004030184610BD0220FCE70000024A13689F
:101AE00043F480731360704700700040194B37B5A2
:101AF0001A6C194C42F080521A641B6C03F080532C
:101B00000193019B236843F480332360FFF74AF974
:101B100005466368DA030CD523680F4D43F40033A0
:101B20002360FFF73FF904466B689B030AD500204A
:101B300006E0FFF737F9401BB0F57A7FE9D90320BB
:101B400003B030BDFFF72EF9001BB0F57A7FEBD95B
:101B5000F5E700BF00380240007000402DE9F34176
:101B6000044640B30368DB0710D423689F0761D4A1
:101B70002368190700F1A68023685A0700F1C7807F
:101B8000A269002A40F0308100202CE0944B9A6832
:101B900002F00C02042A07D09A6802F00C02082A0C
:101BA0000BD15B685E0208D58D4B1B689D03DCD5AD
:101BB0006368002BD9D1012015E06368884DB3F527
:101BC000803F13D12B6843F480332B60FFF7EAF892
:101BD000834E054633689803C7D4FFF7E3F8401BEC
:101BE0006428F7D9032002B0BDE8F0819BB92B68C7
:101BF00023F480332B602B6823F480232B60FFF7C2
:101C0000D1F806462B689903AFD5FFF7CBF8801BB8
:101C10006428F7D9E6E7B3F5A02F2B6803D143F486
:101C200080232B60CEE723F480332B602B6823F4D2
:101C30008023CAE76A4B9A6812F00C0F07D09A68A3
:101C400002F00C02082A11D15B685A020ED4644AD1
:101C500013689B0702D5E368012BACD11368216997
:101C600023F0F80343EAC103136081E7E3685C4DA6
:101C7000BBB12B6843F001032B60FFF793F80646D6
:101C80002B689F0707D52B68226923F0F80343EAE6
:101C9000C2032B606CE7FFF785F8801B0228EFD9A1
:101CA000A0E72B6823F001032B60FFF77BF80646C3
:101CB0002B6898077FF55CAFFFF774F8801B02284C
:101CC000F6D98FE76369464D83B16B6F43F001032B
:101CD0006B67FFF767F806466B6F9B073FF54CAFE6
:101CE000FFF760F8801B0228F6D97BE76B6F23F0C3
:101CF00001036B67FFF756F806466B6F9F077FF58A
:101D00003BAFFFF74FF8801B0228F6D96AE7344B48
:101D10001A6CD00027D41A6C012742F080521A6442
:101D20001B6C03F080530193019B2E4D2B68D9054A
:101D30001BD5A3682A4D012B27D12B6F43F001033C
:101D40002B6741F28838FFF72DF8254E0546336F93
:101D50009B073FD5002F3FF413AF214A136C23F0AC
:101D6000805313640CE70027DFE72B6843F480738C
:101D70002B60FFF717F806462B68DA05D9D4FFF772
:101D800011F8801B6428F7D92CE7ABB92B6F41F20F
:101D9000883823F001032B672B6F23F004032B6794
:101DA000FFF700F806462B6F9807D3D5FEF7FAFF2A
:101DB000801B4045F7D915E7052B2B6F03D143F066
:101DC00004032B67B9E723F001032B672B6F23F084
:101DD0000403B5E7FEF7E6FF401B4045B7D901E72E
:101DE00000380240007000403C4DAB6803F00C032B
:101DF000082B42D02B68022A23F080732B602FD14E
:101E0000FEF7D0FF06462B68990123D4D4E90732A8
:101E10001343626A43EA8213E26A43EA0263226B73
:101E200043EA0273A26A5208013A43EA02436B6032
:101E30002B6843F080732B60FEF7B4FF274D0446F8
:101E40002B689A013FF5A0AEFEF7ACFF001B0228FD
:101E5000F6D9C7E6FEF7A6FF801B0228D3D9C1E654
:101E6000FEF7A0FF04462B689B017FF58DAEFEF7C1
:101E700099FF001B0228F6D9B4E6012A6B683FF4EB
:101E80009AAE03F48002E1698A427FF494AE03F0D3
:101E90003F02216A8A427FF48EAE47F6C072616AC1
:101EA0001A40B2EB811F7FF486AEA26A03F4403180
:101EB0005208013AB1EB024F7FF47DAE03F070623D
:101EC000E16AB2EB016F7FF476AE03F0E043226B80
:101ED000B3EB027F3FF458AE6DE600BF003802401E
:101EE000134908B58B6803F00C03042B1BD0082B97
:101EF0001BD14A684B68496802F03F0213F4800323
:101F0000C1F388111ABF0B4800230B48A1FB000145
:101F1000FEF7EEF9064B5B68C3F3014301335B0048
:101F2000B0FBF3F008BD0348FCE70348FAE700BF45
:101F30000038024000127A000024F4002DE9F0413C
:101F40000D46044610B90120BDE8F081454A1368EA
:101F500003F00F038B4228D321688F0730D4C807C2
:101F600043D4404A136803F00F03AB4266D822689B
:101F700051076FD4130707D53B4A2169936823F4AF
:101F8000604343EAC1039360FFF7AAFF364B374A29
:101F90009B68C3F30313D35CD840354B1860354BB3
:101FA0001868FEF7C3FE0020CEE7136823F00F0386
:101FB0000B431360136803F00F038B42C3D1CBE7CD
:101FC00011F0040F284B03D09A6842F4E0529A6053
:101FD0000E0703D59A6842F460429A609A68A06836
:101FE00022F0F00202439A60B9E761681E4B0129B2
:101FF0001A681BD112F4003FA5D09A6841F28838C4
:10200000194F22F003020A439A60FEF7CBFE064600
:10201000BB68626803F00C03B3EB820FA1D0FEF73C
:10202000C1FE801B4045F3D903208DE7022902D170
:1020300012F0007FE0E712F0020FDDE7136823F0F3
:102040000F032B431360136803F00F03AB427FF4BD
:102050007AAF8CE70449E0688B6823F4E0530343CC
:102060008B6087E7003C02400038024003570008BD
:102070000000002008000020044B054A9B68C3F3C1
:102080008223D35C034A1068D8407047003802406E
:102090001357000800000020044B054A9B68C3F357
:1020A0004233D35C034A1068D8407047003802407E
:1020B000135700080000002003682DE9F74313F0D0
:1020C000010604460BD0B24A916821F400019160E8
:1020D000466B91683143B6FA86F67609916013F43F
:1020E000002512D0AA49E56BD1F88C20B5F5801FE8
:1020F00022F4401208BF012642EA050216BFB5FAD3
:1021000085F500256D09C1F88C20DF0210D5A048A7
:10211000216CD0F88C20B1F5800F22F4400242EA05
:102120000102C0F88C2000F0A881002908BF012519
:1021300013F0807F18BF0126980632D5944B954F37
:102140001A6C42F080521A641B6C03F080530193A6
:10215000019B3B6843F480733B60FEF723FE80469F
:102160003B68D90540F18B81894F226B3B6F13F49B
:10217000407340F08F81236B03F44072B2F5407FCF
:10218000834A40F0AC81916823F0704021F4F8114B
:1021900020F4407001439160C3F30B03116F0B43B4
:1021A00013672368DF060CD5794AD2F88C1021F02A
:1021B0008071C2F88C10D2F88C10A06B0143C2F869
:1021C0008C10580408D57249606ED1F8902022F422
:1021D00040320243C1F89020190408D56C49A06E22
:1021E000D1F8902022F440220243C1F89020DA0373
:1021F00008D56749E06ED1F8902022F440120243DE
:10220000C1F890209F0308D56149206FD1F8902034
:1022100022F440020243C1F89020580608D55C49D8
:10222000606CD1F8902022F003020243C1F89020A4
:10223000190608D55649A06CD1F8902022F00C025E
:102240000243C1F89020DA0508D55149E06CD1F875
:10225000902022F030020243C1F890209F0508D55B
:102260004B49206DD1F8902022F0C0020243C1F802
:102270009020580508D54649606DD1F8902022F489
:1022800040720243C1F89020190508D54049A06D5D
:10229000D1F8902022F440620243C1F89020DA0481
:1022A00008D53B49E06DD1F8902022F4405202431A
:1022B000C1F890209F0408D53549206ED1F89020B0
:1022C00022F440420243C1F89020580208D5304918
:1022D000A06FD1F8902022F080620243C1F89020D4
:1022E00099020CD52A48E16FD0F89020B1F1006F27
:1022F00022F0006208BF01250A43C0F8902013F0C5
:10230000080F18BF01255A0308D52149606FD1F87D
:10231000902022F040720243C1F890201F0209D59C
:102320001B49D4F88000D1F8902022F0805202435B
:10233000C1F89020580109D51549D4F88400D1F886
:10234000902022F000520243C1F89020190109D5D3
:102350000F49D4F88800D1F88C2022F00072024393
:10236000C1F88C20DA0040F13C81094A012ED4F8F2
:102370008C10D2F88C3023F0806343EA0103C2F85A
:102380008C3000F0B080012D75D1014D2B6803E039
:10239000003802400070004023F080532B60FEF7AD
:1023A00001FD06462B689F0000F1288121680E037D
:1023B00001D5E36B1BB1CD021DD5236CDBB9964A69
:1023C000D2F88830D2F8880003F4403300F0E040BF
:1023D0000343606943EA8013A06943EA0063C2F8DB
:1023E0008830D2F88C30A06A23F4F853013843EADD
:1023F0000023C2F88C30880215D5E36FB3F1006F6B
:1024000011D1854AD2F88830D2F8880003F0706381
:1024100000F0E0400343606943EA8013206A43EA26
:102420000043C2F888300A0719D57B4AD2F88810D1
:10243000D2F8883001F0706103F440330B436169D6
:1024400043EA8113E16943EA0173C2F88830D2F8A4
:102450008C30E16A23F440330B43C2F88C306E4C6D
:10246000236843F080532360FEF79CFC05462368F5
:102470009B0040F1CA80002009E0012658E6FEF7E3
:1024800091FCA0EB080064287FF66AAE032003B03D
:10249000BDE8F08302F440729A423FF46CAE3B6FA9
:1024A0003A6F23F4407342F480323A673A6F22F471
:1024B00080323A673B673B6FDA077FF55CAEFEF729
:1024C00071FC41F2883980463B6F9B073FF553AE64
:1024D000FEF768FCA0EB08004845F5D9D6E79168FF
:1024E00021F4F81157E64C4E336823F080633360D3
:1024F000FEF758FC074633681B0178D42268D707DB
:1025000012D5636B83B9D6F88430D6F8841003F4FF
:10251000403301F070610B43616843EA8113A168A5
:1025200043EA0173C6F88430160303D5E36BB3F5B1
:10253000801F05D0D0021ED5236CB3F5800F1AD1B1
:102540003549D1F88430D1F8840003F4403300F0E9
:10255000E0400343606843EA8013E06843EA0063B5
:10256000C1F88430D1F88C00636A20F01F00013B71
:102570000343C1F88C30D10111D52749D1F88430FB
:10258000D1F8840003F0706300F0E040034360681A
:1025900043EA8013206943EA0043C1F88430920182
:1025A0000DD5236962681B0443EA8213E26843EA9B
:1025B0000263A26843EA0273174AC2F88430164ED7
:1025C000336843F080633360FEF7ECFB0746336803
:1025D0001B013FF5D8AEFEF7E5FBC01B6428F6D91A
:1025E00054E7012E3FF47FAFB3F1007FC9E6FEF759
:1025F000D9FBC01B64287FF67EAF47E7FEF7D2FB0E
:10260000801B64287FF6CEAE40E7FEF7CBFB401B75
:1026100064287FF62CAF39E70038024003681A6857
:1026200022F490721A609A6822F001029A602023C4
:102630008367002303667047836F202B10B54BD14F
:10264000002947D0002A45D090F87030012B43D0A4
:1026500041658168A0F85820B1F5805FA0F85A2044
:1026600024D10369002B40F2FF1318BFFF23A0F809
:102670005C3000230268B1F5805FC3674FF022032E
:102680008367936843F00103936021D10469134B7E
:102690001349002C08BF0B460366002380F87030F6
:1026A0001846116841F49071116010BD29B9036991
:1026B000002B14BF7F23FF23D9E7B1F1805F05D141
:1026C0000369002B0CBF7F233F23D0E70023CEE715
:1026D000024BE1E70120E8E70220E6E7F1270008E6
:1026E00049280008F8B5876F04461346202F38D1D3
:1026F00021B31AB390F87020012A32D001250026A8
:102700002222416580F87050C667A0F85830826771
:10271000C06ED4F800C098B1134AC263134A026471
:10272000134AC0E913260A460CF12401FEF73AFCCD
:1027300030B1102384F87060E367676701200FE011
:102740002368002084F870001A6842F480721A60CE
:102750009A6842F001029A609A6842F040029A60D8
:10276000F8BD0220FCE700BF9D280008D72800081C
:10277000E328000838B503680446426F856F9968FE
:1027800009061AD5212A18D19A68806E22F0800293
:102790009A6058B1FEF743FC40B1A06EFEF754FDBD
:1027A000202803D110230320E36738BD2268136873
:1027B00023F0C0031360202363672368986810F038
:1027C0004000F2D0222D10D19A68E06E22F0400233
:1027D0009A6038B1FEF723FC20B1E06EFEF734FDBD
:1027E0002028DFD02046FFF719FF0020DDE77047E3
:1027F000816F0268222910B5B0F85C401FD1526A7F
:10280000416D22400A70426D01324265B0F85A2093
:10281000013A92B2A0F85A20B0F85A2092B26AB99E
:1028200001680C6824F490740C608C6824F0010436
:102830008C6020210266816701F04EF910BD93691A
:1028400043F008039361F9E7816F0268222910B50C
:10285000B0F85C401DD1516A0C40416D21F8024B2B
:102860004165B0F85A10013989B2A0F85A10B0F891
:102870005A1089B261B9146824F490741460946891
:1028800024F00104946020220166826701F024F99B
:1028900010BD936943F008039361F9E708B5C36974
:1028A000826BB3F5807F11D00023A2F85A301368F1
:1028B000196821F480711960996821F0010199600B
:1028C000996821F04001996020239367104601F038
:1028D00003F908BD7047806B08B5FFF7FBFF08BD23
:1028E0007047806B0368426F816F10B59C68240647
:1028F0000AD5212A08D10022A0F852201A6822F015
:10290000C0021A60202242679B685B0606D5222916
:1029100004D10023A0F85A30FFF780FEC36F43F0C4
:102920001003C367FFF7DCFF10BD08B5806B002301
:10293000A0F85A30A0F85230FFF7D2FF08BD704718
:10294000036870B5DA6940F60F061968044632422A
:102950009D6809D1960670D58E066ED5036E002B44
:1029600066D0BDE87040184705F0010001F490768C
:10297000064362D0D50707D5CE0505D501251D62D2
:10298000E56F45F00105E567950706D528B10225F5
:102990001D62E56F45F00405E567560706D528B1C9
:1029A00004251D62E56F45F00205E567150709D5A9
:1029B00001F02005054305D008201862E06F40F0C3
:1029C0000800E067160508D54D0106D54FF40060F4
:1029D0001862E36F43F02003E367E36F43B39006AD
:1029E00005D58A0603D5236E0BB12046984721688A
:1029F0002046E26F8B6802F0280203F0400353EA9E
:102A0000020516D0FFF70AFE8B685B060DD58B68B2
:102A1000E06E23F040038B6038B11A4B0365FEF77C
:102A200042FB28B1E06E036D9BE72046FFF758FF9D
:102A300070BDFFF755FFE567FAE7D60208D56802D3
:102A400006D54FF4801220461A62FFF778FFEFE7B1
:102A5000160606D50D0604D5636E002BE8D0204679
:102A60007FE75006E4D54A06E2D51A68204622F0F0
:102A700040021A602023636700236366FFF7B7FEF6
:102A8000D6E700BF2B2900080268816838B50446E4
:102A9000C369006915680143606901439F48194390
:102AA0002840256A0143E0681160516821F44051D3
:102AB00001435160A1699068294320F430600143CB
:102AC000916097498A421CD1964AD2F8902002F030
:102AD0000302013A022A00F211819349B3F5004F33
:102AE0008A5C40F0C480082A00F2B680DFE812F069
:102AF0009F000901F900B4000301B400B400B40060
:102B000032008A498A4206D1864A8949D2F8902001
:102B100002F00C02E2E787498A4220D1814AD2F8CA
:102B2000902002F03002202A00F0D8800CD8002A31
:102B300000F0EA80102A00F0DB80B3F5004F00F0CF
:102B40008B8001200023B8E0302AF6D1B3F5004F86
:102B500040F0BF806268530803F580336DE076492A
:102B60008A420FD16F4AD2F8902002F0C002802A28
:102B700000F0B48004D8002A00F0C680402ADAE7CA
:102B8000C02AE2E76D498A4212D1664AD2F8902003
:102B900002F44072B2F5007F00F0A08005D8002A50
:102BA00000F0B280B2F5807FC5E7B2F5407FCCE798
:102BB00063498A4212D15B4AD2F8902002F4406203
:102BC000B2F5006F00F08A8005D8002A00F09680E8
:102BD000B2F5806FAFE7B2F5406FB6E759498A4268
:102BE00011D1504AD2F8902002F44052B2F5005F61
:102BF00074D005D8002A00F08780B2F5805F9AE78C
:102C0000B2F5405FA1E750498A4296D1454AD2F8D1
:102C1000902002F44042B2F5004F5FD004D8002A61
:102C200072D0B2F5804F86E7B2F5404F8DE7FFF7DF
:102C300023FA6268530803EB40030020B3FBF2F36E
:102C40009BB2A3F110014FF6EF72914207D9012018
:102C50000023C4E9183338BD01200023F1E723F035
:102C60000F02C3F3420321681343CB60F0E7082A45
:102C70003FF667AF01A353F822F000BF0F2D000805
:102C8000A12C0008A72C0008432B0008CD2C00081D
:102C9000432B0008432B0008432B0008D32C0008CB
:102CA000FFF7FAF935E06268530803F5740303F59A
:102CB00010530020B3FBF2F39BB2A3F110014FF6C7
:102CC000EF729142C3D82268D360C1E7FFF708F9D9
:102CD0001FE06268530803F50043EAE7B3F5004FCD
:102CE000E1D16268530803F1F47303F59043A4E75C
:102CF000B3F5004FEAD1FFF7F3F89AE7B3F5004FC9
:102D0000CED1FFF7C9F994E7B3F5004F8FD0FFF7A5
:102D1000B3F9626800EB5203CBE700BFF369FFEF42
:102D200000100140003802402357000800440040D2
:102D30002657000800480040004C0040005000406A
:102D40000014014000780040007C0040436ADA072C
:102D500010B506D50168846A4A6822F4003222431D
:102D60004A609C0706D50168C46A4A6822F480322A
:102D700022434A60590706D50168046B4A6822F469
:102D8000802222434A601A0706D50168446B4A68CC
:102D900022F4004222434A60DC0606D50168846BB7
:102DA0008A6822F4805222438A60990606D5016817
:102DB000C46B8A6822F4005222438A605A0610D5F6
:102DC0000168046C4A68B4F5801F22F4801242EA5C
:102DD00004024A6005D14A68446C22F4C0022243CE
:102DE0004A601B0606D50268816C536823F40023F1
:102DF0000B43536010BD2DE9F041DDF81880044607
:102E00000E4615461F462268D36936EA03030CBFF7
:102E100001230023AB4201D000201AE0B8F1FF3FAC
:102E2000F2D0FDF7BFFFC01B40452068036802D801
:102E3000B8F1000F0FD123F4D0730360836823F03F
:102E40000103836020236367A3670023032084F8C2
:102E50007030BDE8F0815A07D5D5C3691B05D2D5BE
:102E60004FF400630362036823F4D0730360836844
:102E700023F00103836020236367A367E367E4E72C
:102E80002DE9FF419846436F04460E46202B174616
:102E90004DD1002949D0002A47D090F87030012B3D
:102EA00045D00123002580F870302123C567436792
:102EB000FDF778FFA2680346A4F85070B2F5805F72
:102EC000A4F8527003D122690AB935461646002289
:102ED00084F87020B4F85220CDF8008092B23AB94C
:102EE00040212046FFF787FF50B92023636708E0A1
:102EF0000022802120460393FFF77DFF039B18B13A
:102F0000032004B0BDE8F08121685EB935F8022BDA
:102F1000C2F308028A62B4F85220013A92B2A4F8CD
:102F20005220D7E716F8012BF4E70120E9E7022049
:102F3000E7E730B50025044685B0C567FDF732FFE9
:102F4000226803461268110714D4226812685207D7
:102F500009D56FF07E424FF4800120460092002296
:102F6000FFF749FF98B920230020636784F87000B9
:102F7000A3670DE06FF07E4203904FF400112046EE
:102F800000922A46FFF737FF039B0028DDD003207D
:102F900005B030BD10B5044640B3436F1BB980F88F
:102FA0007030FDF7F3FD2268242320466367136821
:102FB00023F001031360FFF767FD012816D0636A51
:102FC00013B12046FFF7C2FE236820465A6822F458
:102FD00090425A609A6822F02A029A601A6842F077
:102FE0000102BDE810401A60FFF7A3BF012010BD29
:102FF0002DE9F041002403F1FF380C600124A045C5
:1030000001DCBDE8F081069DA60052F824C0AC4565
:1030100004F101051CDD164456F8046CB44517DDB7
:103020002E469E42A6EB040E354652F8267003D07B
:10303000BC4506F10106F4D0BC4509DD0E680E2E34
:1030400006DC751C0D600EF1010540F82640254494
:103050002C46D4E7F0B5012304468B4200DBF0BDDB
:1030600054F8046F1A46254655F8047CB74203DD30
:10307000013A45F80479F7D1013340F82260ECE7D2
:103080002DE9F04301238E4690460D46434501DB72
:10309000BDE8F08355F8046F1C4600EB8609AC468A
:1030A0005CF8047CD9F8002050F827108A4203DD30
:1030B000013C4CF80479F3D101334EF82460E5E784
:1030C000F8B504461E4610460D460A682146FFF72D
:1030D000D7FF4FF0FF32C6F1000E2968914204DCA1
:1030E0002046BDE8F840FFF7B5BF571C38462F60B3
:1030F000814201D13A46F0E7B2F1FF3F54F8203067
:1031000014BF54F822C09446A3EB0C03B34201DC75
:103110009E4508DDD5F800C00CF101032B6054F882
:10312000203044F82C300130E2E737B5069D0C46DC
:103130000095FFF75DFF079BFFF7C2FF2268089B22
:103140009A42D4BF2260236003B030BD2DE9F04F16
:10315000BBB006460D46CDE9042300221346AA4221
:103160004BDB9C4C0022B3FBF5F32046AA4249DB23
:10317000984A00211368013152F8040F0344506843
:10318000034490681B1848BF0333B1F5F87F4FEA3A
:10319000A30342F8043CEDD18F4A0021DFF834C28A
:1031A00040F2EF1896466346DCF8040001310CF15A
:1031B000040C1B684145A0EB03034EF8043BF2D11D
:1031C000854900200B68013051F804CFB0F5F77F36
:1031D000634403EBD3734FEA630341F8043CF1D13A
:1031E0007D484FF0000C40F27A4B40F2E919DFF8CD
:1031F000F48186460623002111E056F822100132A0
:103200000B44ACE756F822100132C91A40F8041BEF
:10321000ACE75EF8047B38F802AB07FB1A11013B00
:10322000F7D10CF1010C91FBFBF1CC4540F8041BEC
:10323000DDD1194640F2EF1C52F8040B013300288F
:10324000B8BF404263450144F6D1B1FBF3F1082217
:103250000520009107A9CDE901202BA85E4AFFF7C0
:1032600064FF079801283BDD2BAB00224FF0010CD7
:103270001946D3F804E00CF1010C043309686045E9
:10328000AEEB01010A44F3D1431E92FBF3F241F28B
:10329000707393FBF2F3012245990DF1340C0DF19B
:1032A000AC0E0B606146469B1A70002398421ADCF4
:1032B0004A490022474B89469E46AA421ADB002211
:1032C0000DF170091646B0421FDC012A38DC444A71
:1032D000002305990A60449A13703BB0BDE8F08F53
:1032E0003F4B0022D8E75EF8042B0133023241F84D
:1032F000042BDBE756F8227043F8047B049F57F851
:103300002270013249F8047BD7E75CF8043B9D1F2B
:10331000B5F5F27F08D25D1F4FF0807805330127A5
:103320009D4203D107B901320136CCE75EF825A0F2
:10333000C245BEBF49F82650D04600270135EFE709
:1033400000202368013054F8045F2B4465682B4447
:10335000A5685B1948BF03339B1044F8043C0B6815
:1033600051F8045F2B444D682B448D685B1948BFAE
:103370000333B0F5F87F4FEAA30341F8043CE0D1F2
:103380001CAE002331460C93CDE90833CDE90A3356
:1033900051F8040BB0F5FA7F99DC01339A42F7D16A
:1033A0000024531E0B4F25462146A346DFF82CC0B0
:1033B0000493D6F804800BF1010B56F8040BA8EB2C
:1033C0000009B9F10A0F53DD4FF07F4E0346F24674
:1033D00018E000BFA80A0020E802002078120020B0
:1033E00019FCFFFF3457000857F823207245C8BF67
:1033F00096465CF82320C8BF1C465245C4BF1D46F4
:10340000924601339845EFDC57F8202057F82830D2
:103410009B1A221A534357F8202093FBF9F31344C5
:1034200057F82520D21A0AFB02F2D211002A1FDD1A
:1034300004291DDC5CF82030281A5CF82880A8EBF1
:10344000030800FB08F898FBF9F898445CF825306D
:10345000A3EB08030EFB03F3DB1109D03AA800EB42
:10346000810E14200131434393FBF2F34EF8C83C24
:10347000049B9B459DDB08A8FFF7ECFD03294FEA61
:1034800061024FEA820315DDE8333AA901EB8201BC
:103490000DEB030251F8CC3C52F8C82C134403EB5B
:1034A000D3735B10DA1EB42A3FF611AF044AD25C24
:1034B00001230EE7E8336B4453F8C83CF2E700BF42
:1034C0007257000808B500F0D9F9831E58425841D8
:1034D00008BD0000B0F5FA7F2DE9F0470446DFF89B
:1034E00030A134BF0446002486B00026A146D04651
:1034F000434F444D40213846FDF78AFF01286FD0E5
:10350000072009F1010900F065F9AB7BB5F80F2040
:103510001FFA89F91B0452BAB9F5FA7F03F4403354
:1035200092B243EA02036A8ACAF8D03752BA6B7C75
:1035300092B24FEA034303F4403343EA02034AF8EA
:10354000043BD7D15CB3C4F5FA742D4FA4B208EB99
:10355000840840213846FDF75BFF01284AD0072048
:10356000013400F037F9AB7BB5F80F20A4B21B048F
:1035700052BAB4F5FA7F03F4403392B243EA02033D
:103580006A8AC8F8D03752BA6B7C92B24FEA0343CA
:1035900003F4403343EA020348F8043BD9D10DF168
:1035A00017030DF116024FF4FA7102930092164BB5
:1035B000164A01930433A2F5FA60FFF7C7FD9DF99F
:1035C00017308BB19DF9163073B1D5F80630772BD3
:1035D0000ADCD5F80A006428D4BF0020012004E0EA
:1035E000002E06F1010303DA012006B0BDE8F087E2
:1035F0001E467FE7002E06F10103F5DB1E46A8E715
:1036000000040240280000202E0000201822002084
:10361000481A002070B50C4688B01646002849D1DB
:10362000294B00F18040294D03A91A6B00F50130A8
:1036300042F002021A631A6B02F002020192019A2E
:103640001A6C42F400121A641B6CAA6803F400138B
:103650000293029B6B691343122203930123CDE96A
:10366000042303230693AB690793FDF7EFFD2B6853
:10367000174A1A6026B9A2F1FE52A2F698425A6081
:103680003CB901229C60C3E90324C3E90544C3E9B2
:1036900007441048FEF713F8014640B90D48FEF7FD
:1036A000D1F9014618B90B48FEF7F2F900B1022032
:1036B00008B070BD012804D0023818BF01204000B6
:1036C000F6E70020F4E700BF003802400C000020BD
:1036D00000540040D40000207FB58DF8173090B919
:1036E00001234FF47A70CDE901300DF117000090FD
:1036F00008480068FEF734F8003818BF0120400081
:1037000007B05DF804FB012801D00238F5E700207E
:10371000F6E700BF0C0000201FB590B901204FF460
:103720007A7C009301430346CDE9010C0848006808
:10373000FEF7CCF8003818BF0120400005B05DF856
:1037400004FB012801D00238F5E70020F6E700BFAE
:103750000C0000201FB598B94FF47A7002909DF8C4
:103760001800CDE900300123084819430068FEF72E
:10377000ADF8003818BF0120400005B05DF804FB2B
:10378000012801D00238F5E70020F6E70C00002000
:1037900010B5064C02460B4660782178FFF79CFF77
:1037A000003818BF0120400010BD00BF28000020D5
:1037B00013B5074C02460DF1070321786078FFF737
:1037C000ABFF022814BF9DF80700002002B010BD17
:1037D0002800002037B505460B4C0020FFF7E8FF16
:1037E00043060DD50120094CFFF7E2FF06232A46C8
:1037F000009304F10E0321786078FFF7ABFF01E03E
:10380000013CEAD103B030BD010000802800002057
:103810004021092008B5FFF7BBFF40210920BDE882
:103820000840FFF7B5BF000010B4044C02460B4639
:10383000607821785DF8044BFFF76EBF2800002008
:10384000002307B5FE200DF106018DF806308DF836
:103850000730FFF7E9FF0DF10701FF20FFF7E4FF55
:103860009DF806309DF8070040EA0320024B58807F
:1038700003B05DF804FB00BF2800002030B587B01E
:1038800010220021022402A800F066FC424B01A98C
:1038900042481A6B42F002021A631B6B03F00203E8
:1038A0000093009B402301930123CDE90334FDF7EE
:1038B000CDFC3B4B002258781146FFF7ABFEFFF7DB
:1038C000BFFF384BC0B21B68152819D0A34215DDC5
:1038D00000F000F9054600F0FDF84FF47A71B0FBF6
:1038E000F1F202FB11023048B5FBF1F100F0C0FA31
:1038F0002E4800F0BDFA2E4800F020FB204649E09B
:10390000002B18DD00F0E6F8044600F0E3F84FF471
:103910007A71B0FBF1F202FB11022648B4FBF1F11F
:1039200000F0A6FAFFF78CFF0146234800F0A0FA4A
:103930001F4800F003FBFFF76BFFC0210220FFF7D9
:1039400027FF00210320FFF723FF00210420FFF7BA
:103950001FFF00210520FFF71BFF00210620FFF7B6
:1039600017FF0F210820FFF713FF03210920FFF79E
:103970000FFF27210A20FFF70BFF24210C20FFF760
:1039800007FF24210D20FFF703FF7F211020FFF701
:10399000FFFE002007B030BD0038024000040240A6
:1039A0002800002058000020E35600082A5800088C
:1039B000815600089E560008445800082C4B1B688E
:1039C000002B30B52B4C85B01EDB00F083F805468C
:1039D00000F080F84FF47A71B0FBF1F202FB1102B3
:1039E0002548B5FBF1F100F043FA63796278029360
:1039F000237921780193E37820480093A37800F09D
:103A000037FA1F4800F09AFA22781E490F32D2B2D4
:103A10000D2A2BD8012342F281209340184011D166
:103A200040F604152B4013D10C2A1FD1164A60789A
:103A30001072A0785072E0789072607910732079DB
:103A4000507303E0104BE2785A7100230B7004E0CE
:103A500063880D4A5BBA087093824FF4806200213C
:103A6000044805B0BDE8304000F076BB0123EDE727
:103A700058000020E8290020505600085E58000831
:103A800081560008540000203E00002010B50E4C66
:103A90002046FEF76FFEE36E0C4A1B685B68C3F5B9
:103AA00080631360FFF78AFF094B4FF480620021A7
:103AB000184600F051FB4FF4806201462046BDE8F5
:103AC0001040FEF70FBE00BFE4010020E82D0020EB
:103AD000E8290020FDF766B902686C4B9A422DE98F
:103AE000F04706469AB040F0CD80694B1B780D2B0D
:103AF0000FD00A2B05D067490A68501C0860664938
:103B00008B540122624930461AB0BDE8F047FEF7F7
:103B100093BD604B0024604F1A6838461C60BC544B
:103B2000FCF78EFB3D2105463846CDE90644CDE93C
:103B3000084400F019FB0028E3D0342221460AAFE4
:103B40000DEB020000F008FB544B3A4603F1080C61
:103B50001868083353F8041C1446634503C422460E
:103B6000F6D1186805F1FF391B7920602371002414
:103B7000DFF82481DFF844A1A54275D109AB4FF0ED
:103B8000000806AA3946019308AB4348009307ABE7
:103B9000434CCDF8088000F0D9F92A4641463E480A
:103BA00000F0DAFA236843451CDBFDF7FBF8054615
:103BB000FDF7F8F84FF47A71B0FBF1F202FB110255
:103BC0003848B5FBF1F100F053F9099B06990093D1
:103BD0003548CDF80480DDE9072300F049F9334882
:103BE00000F0ACF92368002B1EDD099BDDE9078995
:103BF0000593FDF7D7F80746FDF7D4F84FF47A712F
:103C0000B0FBF1F202FB11022948B7FBF1F100F021
:103C10002FF90022059B414600924A46254800F0B4
:103C200027F9224800F08AF92368002B15DDFDF7FB
:103C3000B9F80446FDF7B6F84FF47A71B0FBF1F22B
:103C400002FB11021A48B4FBF1F100F011F91A4815
:103C500000F00EF9154800F071F94FF48062002170
:103C60000D4800F079FA4CE718F8013B2C2B07D1EE
:103C70004C4505D23846FCF7E3FADAF800303B5001
:103C8000013479E71AB0BDE8F08700BF0048004072
:103C9000F0310020EC310020EC2D0020705800089D
:103CA000580000205056000883580008815600082C
:103CB0009E560008BE580008ED5800087E580008BF
:103CC00007B54FF6FF730190012201A90348FFF7E2
:103CD000D7F8019803B05DF804FB00BF6402002030
:103CE000014B1860704700BF58000020002310B53A
:103CF0000446C0E90033C0E9043383608181436630
:103D0000C2818361194608225C3000F025FA0D4B10
:103D100063620D4BA3620D4BE3620D4B23630D4BAE
:103D200024629C4206D003F16802944202D0D03350
:103D30009C4205D104F15800BDE8104000F092BA51
:103D400010BD00BFA53F0008CB3F0008034000089E
:103D500027400008F4310020024A0349034800F0DC
:103D600069B800BF5C0000205151000868000020C5
:103D700041680C4B994210B5044601D001F0E8F9B6
:103D8000A168094B994202D0204601F0E1F9E168AF
:103D9000064B994204D02046BDE8104001F0D8B946
:103DA00010BD00BFF43100205C320020C43200207E
:103DB00010B50B4B0B4C0C4A1A6020460022042114
:103DC000FFF794FF04F1680001220921FFF78EFF3D
:103DD00004F1D0000222BDE810401221FFF786BF97
:103DE0002C330020F4310020593D0008014800F038
:103DF0003ABA00BF35330020014800F035BA00BFA1
:103E00003533002010B50446FFF7F0FF236A1BB1DD
:103E1000BDE81040FFF7F0BF044B2362044B1B6862
:103E2000002BF5D1FFF7C4FFF2E700BF713D00089A
:103E30002C3300202DE9F843074688461446002617
:103E4000D4E90195B9F1010905D52468002CF7D111
:103E50003046BDE8F883AB89012B07D9B5F90E30A0
:103E6000013303D029463846C04706436835E9E7A1
:103E70000FB407B5064904AB086853F8042B8168F2
:103E8000019300F0E7FC03B05DF804EB04B0704769
:103E9000B4000020036A70B5846805460E460BB96D
:103EA000FFF7B0FF636EDB0705D4A389980502D442
:103EB000A06D00F0D8F9A389190713D523698BB138
:103EC000013EA36816F8011F013BA360E9B9002B6E
:103ED0002EDA22460A21284600F0A9F8013007D040
:103EE0000A2507E02146284600F0DEF80028E7D042
:103EF0004FF0FF35636EDA0705D4A3899B0502D422
:103F0000A06D00F0B1F9284670BD002B04DAA2695B
:103F10009A4206DC0A2904D023685A1C22601970D0
:103F2000CFE72246284600F082F80130C9D1DFE70A
:103F300023680A255A1C22601D70DBE7024B0146EC
:103F40001868FFF7A7BF00BFB40000200EB410B57B
:103F50009FB021AC4FF4017154F8042B0192ADF8DD
:103F60001C1004900890FCF76BF90C4B059009901D
:103F70000D930B48019A0068039400231193169344
:103F80004FF6FF73ADF81E3004A9234600F0C0FAC7
:103F90001FB0BDE8104003B0704700BFC73F000826
:103FA000B400002010B50C46B1F90E1000F00CF969
:103FB0000028ABBF636DA3891B1823F48053ACBFEB
:103FC0006365A38110BD002070472DE9F0411F46B5
:103FD0008B89DB0505460C46164605D5B1F90E1052
:103FE0000223002200F0DEF8A389B4F90E1023F4B6
:103FF0008053A38132463B462846BDE8F04100F09D
:10400000F5B810B50C46B1F90E1000F0CBF8431C12
:10401000A38915BF606523F4805343F48053A381C3
:1040200018BFA38110BDB1F90E1000F0ABB8F8B500
:104030000E461446054618B1036A0BB9FFF7E2FEB7
:10404000A369A360A3891A0725D523691BB3236835
:104050002269981A6369F6B28342374604DC214626
:10406000284601F075F8E0B9A368013BA360236816
:104070005A1C22601E706269431C9A4204D0A389B4
:10408000DB0706D50A2E04D12146284601F060F848
:1040900038B93846F8BD2146284600F005F8002812
:1040A000D5D04FF0FF37F4E738B52A4B05461868EE
:1040B0000C4618B1036A0BB9FFF7A4FEA389B4F943
:1040C0000C20180722D4D90607D409232B6042F00C
:1040D0004003A3814FF0FF3034E0580712D5616BE5
:1040E00041B104F14403994202D0284600F0BEF8E1
:1040F00000236363A38923F02403A3810023636067
:1041000023692360A38943F00803A38123694BB982
:10411000A38903F42073B3F5007F03D0214628461A
:1041200001F064F8A089B4F90C2010F001030AD062
:104130000023A36063695B42A361236943B910F064
:104140008000C4D138BD810758BF6369A360F4E71C
:104150000020F7E7B400002002440346934200D158
:10416000704703F8011BF9E7C9B2034610F8012BA9
:104170001AB18A42F9D118467047002918BF0023A6
:10418000F9E7000038B5064D0023044608462B60C9
:10419000FCF7A4FC431C02D12B6803B1236038BD9B
:1041A0003033002038B5074D04460846114600223A
:1041B0002A601A46FCF79CFC431C02D12B6803B111
:1041C000236038BD3033002038B5074D044608461B
:1041D000114600222A601A46FCF764FC431C02D1F7
:1041E0002B6803B1236038BD3033002038B5074D4C
:1041F00004460846114600222A601A46FCF760FC75
:10420000431C02D12B6803B1236038BD303300203A
:10421000014B1868704700BFB400002070B50D4D09
:104220000D4C641BA4100026A64209D10B4D0C4C6A
:1042300001F0FCF9641BA4100026A64205D170BD54
:1042400055F8043B98470136EEE755F8043B98478C
:104250000136F2E7585A0008585A0008585A000820
:104260005C5A0008704770477047000037B5002956
:1042700044D051F8043C0190002BA1F10404B8BFD4
:10428000E41800F0DFF81E4A0198136833B9636040
:10429000146003B0BDE8304000F0DAB8A34208D99A
:1042A000256861198B4201BF19685B684919216053
:1042B000EDE71A465B680BB1A342FAD911685518AD
:1042C000A5420BD1246821445418A3421160E0D1C7
:1042D0001C685B6853600C441460DAE702D90C2355
:1042E0000360D6E7256861198B4204BF19685B68D3
:1042F000636004BF491921605460CAE703B030BD50
:104300003833002070B50E4E0C463168054611B9A1
:1043100001F03EF830602146284601F039F8431C90
:104320000AD0C41C24F00304A04207D0211A284656
:1043300001F02EF8013001D14FF0FF34204670BD5E
:104340003C3300202DE9F843CD1C25F0030508354A
:104350000C2D38BF0C25002D074601DBA94205D9DD
:104360000C233B6000263046BDE8F883DFF8D080A0
:1043700000F068F8D8F800301C465CBB2946384687
:10438000FFF7C0FF431C044655D1D8F8004026462D
:10439000002E45D1002C48D023683146384604EB26
:1043A000030900F0F5FF81453FD121686D1A2946C8
:1043B0003846FFF7A7FF013037D023682B4423602E
:1043C000D8F80030002B38D05A68A2422BD10022F6
:1043D0005A600FE02268521B1FD40B2A17D96119AB
:1043E000A342256018BF5960636808BFC8F8001071
:1043F00062514B60384604F10B0600F029F826F0B4
:104400000706231DF21AAED09B1BA350ABE7A342B5
:104410006268DDD1C8F80020ECE723466468ACE7A9
:1044200034467668B4E71346CCE70C233B60384645
:1044300000F00EF897E72560DCE75B60FFDE00BF69
:10444000383300200148FFF70EBF00BF343300208F
:104450000148FFF709BF00BF3433002038B54B1CBB
:10446000144603D14FF0FF35284638BD938923F019
:1044700020039381636B5268CDB28BB1A36B9342DF
:1044800008DD23685A1E226003F8015C636801336B
:104490006360E9E7214600F01EFF0028F1D0E1E764
:1044A0002169236851B1994208D213F8011CA9422D
:1044B00004D1013B013223606260D5E7C4E90F32C9
:1044C00004F1440363630323A363234603F8465FB5
:1044D00023600123DCE710B50C46496B69B104F198
:1044E0004403994201D0FFF7C1FE236C63600020B2
:1044F000606313B1E36B236010BD23692360002365
:104500006360A38943F02003A3814FF0FF30F3E7FA
:104510002DE9F0470C46ADF5227D0021CDE944118F
:10452000A649A0910DF10408A549A64FDFF898927D
:10453000CDF818810646A19100931378002B00F066
:104540005A81F95C11F0080102F1010519D0636884
:10455000002B0FDD23681A78BA5C120701D42A46B3
:10456000EBE7459A0132459262680133013A626095
:104570002360ECE7A19B2146304698470028E9D00C
:10458000EDE7252B12D09A466368002B40F391800B
:1045900022681378534540F02E816368013B6360C5
:1045A000459B0132013322604593D8E74191439105
:1045B00053782A2B02BF1023951C41930A22AA4646
:1045C0001AF8011BA1F13003092B1CD97E480322E4
:1045D000FBF73EFE38B1419AA0EB0900012383406E
:1045E00013434193554615F8013B782B06D8572BBA
:1045F00010D8252BC7D057D8002B65D0032347935D
:104600000A23429376E0439B02FB03113039439126
:104610005546D4E7A3F15802202AEFD801A151F85A
:1046200022F000BFD7460008FD450008FD45000800
:1046300035470008FD450008FD450008FD45000818
:10464000FD450008FD450008FD450008FD45000842
:104650004B47000831470008AF460008AF46000846
:10466000AF460008FD450008ED460008FD4500087E
:10467000FD450008FD450008FD4500085B470008B2
:1046800029470008CF460008FD450008FD45000801
:1046900057470008FD45000831470008FD45000860
:1046A000FD450008D7460008453B022BA6D8052348
:1046B0001FE0A19B21463046984700283FF468AF91
:1046C0004498002840F08D804FF0FF308FE0419AF1
:1046D00042F020024192419A42F40072419210222B
:1046E0006F2B429234BF0323042302E00023429342
:1046F000032347936368002B3DDD419B590604D497
:1047000023681A78BA5C12073CD4479B022B4BDC17
:104710006B46224641A9304600F046FB01286AD08C
:1047200002287FF41CAFCBE7082342930423E0E781
:104730000A22D5E72946404600F094FD419B43F00C
:104740004003419305460123D3E7419B43F04003D7
:1047500041930023CDE70223CBE74198C3063FF501
:10476000FEAE009B459A191D00911B68C0074CBF07
:104770001A801A60F3E6A19B21463046984700282C
:10478000BBD09DE7459A013245926268013A002A02
:10479000626002DD01332360B2E7A19B214630460F
:1047A00098470028ACD08BE7042B0FDC6B462246E1
:1047B00041A9304600F052FBB0E700BF5D4400085D
:1047C000D744000850590008015900080B4B002B32
:1047D0003FF4C5AE6B46224641A93046AFF3008098
:1047E0009CE7A38913F0400F18BF4FF0FF300DF581
:1047F000227DBDE8F0874498F9E700BF0000000083
:104800009368013B002B10B4936008DA9469A342CB
:1048100001DB0A2903D15DF8044BFFF708BC1368DC
:10482000581C1060197008465DF8044B7047F8B5C5
:1048300006460F461446D518AC4201D1002007E0C9
:1048400014F8011B3A463046FFF7DAFF431CF3D158
:10485000F8BD00002DE9F04F0D469DB01446984676
:10486000064618B1036A0BB9FFF7CCFA6B6ED9078D
:1048700005D4AB899A0502D4A86DFFF7F4FCAB8987
:104880001B0701D52B699BB929463046FFF70CFC65
:1048900070B16B6EDC0704D54FF0FF301DB0BDE882
:1048A000F08FAB899805F7D4A86DFFF7DDFCF3E72F
:1048B0000023099320238DF82930CDF80C80302374
:1048C000DFF8B0818DF82A304FF0010923469A466F
:1048D00013F8012B0AB1252AF9D1BAEB040B0BD03E
:1048E0005B46224629463046FFF7A1FF013000F023
:1048F000A980099A5A4409929AF80030002B00F0D6
:10490000A18000234FF0FF32CDE905230AF1010A0F
:10491000049307938DF853301A935446052214F8E4
:10492000011B5448FBF794FC049AD8B9D10644BF44
:1049300020238DF85330130744BF2B238DF85330B9
:104940009AF800302A2B15D0079A544600204FF0D1
:104950000A0C214611F8013B303B092B4DD9B0B16F
:10496000079214E0A0EB080309FA03F3134304933E
:10497000A246D2E7039B191D1B680391002BBBBF06
:104980005B4242F0020207930793B8BF0492237878
:104990002E2B0CD163782A2B34D1039B1A1D1B6854
:1049A0000392002BB8BF4FF0FF3302340593DFF8BA
:1049B000D4A0217803225046FBF74AFC38B1049B6F
:1049C000A0EB0A004022824013430134049314F800
:1049D000011B29488DF828100622FBF739FC002816
:1049E0003FD0264B1BBB039B073323F00703083341
:1049F0000393099B3B44099368E70CFB02320C4686
:104A00000120A6E700230134059319464FF00A0C54
:104A1000204610F8012B303A092A03D9002BC6D0C2
:104A20000591C4E70CFB012104460123F0E703AB29
:104A300000932A46124B04A93046AFF30080074684
:104A4000781CD6D16B6ED90705D4AB899A0502D4F0
:104A5000A86DFFF709FCAB895B063FF51DAF099810
:104A60001CE703AB00932A46054B04A9304600F02F
:104A700079F8E4E7055900080B5900080000000028
:104A80002F480008015900082DE9F04716469946BD
:104A90008A680B69DDF820809342B8BF1346336003
:104AA00091F8432007460C460AB10133336023686E
:104AB000990642BF336802333360256815F0060556
:104AC00006D104F1190AE36832689B1AAB4226DC6E
:104AD00094F84320131E226818BF012392062BD49A
:104AE00004F1430249463846C04701301ED02368CE
:104AF000226903F00603042B02BFE5683368ED1A50
:104B0000A3680CBF25EAE57500259342C4BF9B1A34
:104B1000ED1800261A34B5421AD1002008E001230E
:104B2000524649463846C047013003D14FF0FF3066
:104B3000BDE8F0870135C6E7E1185A1C302081F83E
:104B40004300224494F8451082F843100233C7E72B
:104B50000123224649463846C0470130E6D0013697
:104B6000D9E700002DE9FF470F7E0C9D782F914675
:104B700080460C469A4601F1430207D8622F0AD8B4
:104B8000002F00F0D480582F00F0C08004F14205BF
:104B900084F842703AE0A7F16303152BF6D801A11F
:104BA00051F823F0FD4B0008114C00088D4B000814
:104BB0008D4B00088D4B00088D4B0008114C0008F0
:104BC0008D4B00088D4B00088D4B00088D4B000865
:104BD000154D00083D4C0008CF4C00088D4B0008D7
:104BE0008D4B0008374D00088D4B00083D4C0008E8
:104BF0008D4B00088D4B0008D74C00082B681A1D00
:104C00001B682A6004F1420584F8423001239FE0CA
:104C100020682B68070603F10401296001D51E688E
:104C200003E04606FBD5B3F90060002E03DA2D231E
:104C3000764284F843305A480A2312E02B682068F1
:104C4000191D2960050601D51E6802E04106FBD545
:104C50001E8853486F2F0CBF08230A23002184F8B5
:104C600043106568A560002DA2BF216821F00401F2
:104C700021600EB9002D4BD01546B6FBF3F103FBB6
:104C80001167C75D05F8017D3746BB420E46F4D972
:104C9000082B0BD12368DE0708D523696168994288
:104CA000DEBF302305F8013C05F1FF35521B2261C0
:104CB000CDF800A04B4603AA21464046FFF7E4FE8C
:104CC00001304AD14FF0FF3004B0BDE8F0872368CF
:104CD00043F0200323603348782784F84570236825
:104CE00029681F0651F8046B02D45F0648BFB6B2AC
:104CF000DF0748BF43F02003296048BF23601EB987
:104D0000236823F0200323601023A7E72448E4E767
:104D10001546BDE72B6826686169181D28603506B1
:104D20001B6801D5196002E07006FBD519800023CD
:104D300023611546BCE72B681A1D2A601D6862684E
:104D400000212846FBF784FA08B1401B60606368C5
:104D50002361002384F84330AAE723692A464946A1
:104D60004046D0470130ADD023689B0713D4E0689C
:104D7000039B9842B8BF1846A6E70123324649462E
:104D80004046D04701309DD00135E36803995B1A56
:104D9000AB42F2DCEBE7002504F11906F5E700BFB2
:104DA00012590008235900082DE9F84315468A686E
:104DB00080460C4632B98A69002A0CBF01224FF0A6
:104DC000FF328A602268DFF89090D1065FBF1A68D0
:104DD000111D196016680027A06988B1012807D144
:104DE0002A6811786269525C52B9002F31D022E0F2
:104DF000022820D12B681B7819F803301B071AD41E
:104E00002368DA065EBF2B681B7806F8013B2A6828
:104E10006B6801322A60A268013B013A6B6001377E
:104E2000A26042B1002BD7DCD4F88031294640463D
:104E300098470028D0D0236813F0100305D1E2680A
:104E40000132E260A26902B1337023693B442361FD
:104E50000020BDE8F88300BF505900082DE9F04F4D
:104E60009846744B0C468246164693E8070087B076
:104E700003AB83E80700704BA169704A032918BF90
:104E80001A46A36801925A1EB2F5AE7F88BF6FF42E
:104E9000AE75274682BF03EB050940F25D13A360A0
:104EA00057F81C3B43F4506398BF4FF00009236050
:104EB0003D464FF0000B316803AB097853F82B00E7
:104EC0000222FBF7C5F928B3BBF1010F59D1626883
:104ED0002AB92268082342F40072636022602268C3
:104EE00022F4A0622260A268511EA16092B13268D1
:104EF000511C3160127805F8012B7268013A002AC2
:104F0000726007DCD4F88021314650469047002873
:104F100040F085800BF1010BBBF1030FCBD163682F
:104F20000BB90A236360636845496069C91A00F0D8
:104F300099F94FF0000BA3682268002B3DD031682F
:104F4000606991F800C010F80C00002835D0BCF161
:104F5000300F24D1100522D50BF1010BB9F1000F50
:104F600003D0013309F1FF39A3607368013B002BC3
:104F700073601BDD336801333360A368013BA360BA
:104F8000D9E7BBF1020FAED1226802F4C061B1F5DE
:104F9000007FBFD11023636042F48072A2E722F445
:104FA000106222600B7805F8013BDEE7D4F880310F
:104FB0003146504698470028DFD02368D9050DD5E3
:104FC000BD4209D915F8011CD4F87C31324650464F
:104FD000984705F1FF394D46BD4228D0226812F0AE
:104FE000100213D12A706368019E39465046B047BB
:104FF000D8F8003021681A1DC8F8002011F0200FE1
:105000001B680FD01860E3680133E3602369ED1B70
:105010005D442B442361002007B0BDE8F08F4FF0C2
:10502000000BCAE7CA074CBF18801860EBE70120E5
:10503000F2E700BF44560008195600083155000831
:10504000445900088A892DE9F041054610070C46AD
:1050500058D44B68002B05DC0B6C002B02DC0020C5
:10506000BDE8F081E66A002EF9D0002312F48052E8
:105070002F68216A2B6032D0606DA3895A0705D54D
:105080006368C01A636B0BB1236CC01A002302461D
:10509000E66A216A2846B047431CA38906D12968DD
:1050A0001D292BD8294A0A41D60727D4002262603D
:1050B000D9042269226004D5421C01D12B6803B9AE
:1050C0006065616B2F600029C9D004F144039942E7
:1050D00002D02846FFF7CAF800206063C0E701232A
:1050E0002846B047411CC8D12B68002BC5D01D2BCA
:1050F00001D0162B01D12F60B1E7A38943F0400303
:10510000A381ADE70F69002FA9D093070E6808BFF0
:105110004B690F6018BF0023A6EB07088B60B8F13E
:10512000000F9CDD216AA66A43463A462846B047EE
:10513000002806DCA38943F04003A3814FF0FF3031
:105140008EE70744A8EB0008E9E700BFFEFFBFDFDA
:1051500038B50B6905460C4613B90025284638BDFD
:1051600018B1036A0BB9FEF74DFEB4F90C30002BF1
:10517000F3D0626ED00704D4990502D4A06DFFF776
:1051800072F828462146FFF75DFF636EDA07054691
:10519000E4D4A3899B05E1D4A06DFFF765F8DDE7B2
:1051A00070B50C46B1F90E10002996B015461E4692
:1051B0000DDAA38913F0800F4FF000010CBF4FF4FC
:1051C00080634023002031602B6016B070BD6A46BA
:1051D00000F0BCF80028ECDB019901F47041A1F566
:1051E0000053594259414FF48063EBE78B8973B503
:1051F0009D0706460C4607D504F14703236023614B
:105200000123636102B070BD01AB6A46FFF7C8FFBE
:10521000009905463046FFF795F848B9B4F90C30C7
:105220009A05EFD423F0030343F00203A381E3E7DD
:10523000A389206043F08003A381009B6361019BED
:1052400020615BB1B4F90E10304600F091F828B13E
:10525000A38923F0030343F00103A381A3891D4322
:10526000A581CFE770B50B7804465E2B0BBF4B785A
:105270004A1C8A1C002108BF0121013804F1FF05E6
:1052800000F8011FA842FBD10BB9501E70BD81F080
:105290000101E1541046024612F8015B2D2D05D0A4
:1052A0005D2D16D0002DF1D02B46F2E746785D2E0D
:1052B000FAD0B342F8DC02301A4601329642A154C9
:1052C000FBDCF21A013A5D1CB342A8BF0022AB1806
:1052D000E1E71046DAE72DE9F0410C46496B04F1AD
:1052E000440399421DD14FF48061FFF72BF818B9A0
:1052F0004FF0FF30BDE8F0814FF48063A36394F872
:105300004630606380F8FF3394F8453080F8FE3310
:1053100094F8443080F8FD3300F2FD302060002026
:10532000E8E7A66B77003A4600F050F805460028FB
:10533000DED000EB060801463246404600F038F861
:10534000C4E90D57C4F80080E9E7000038B5074DFF
:1053500000230446084611462B60FBF7C2FB431CA2
:1053600002D12B6803B1236038BD00BF3033002069
:1053700038B5064D0023044608462B60FBF7B6FB04
:10538000431C02D12B6803B1236038BD30330020A9
:1053900038B5064D0023044608462B60FBF7AAFBF0
:1053A000431C02D12B6803B1236038BD3033002089
:1053B0000A44914200F1FF3300D1704710B511F853
:1053C000014B03F8014F9142F9D110BD2DE9F04195
:1053D000804614460E4621B9BDE8F0411146FEF75D
:1053E000B1BF2AB9FEF742FF25462846BDE8F08145
:1053F00000F014F98442074602D8B4EB500F12D8DB
:1054000021464046FEF79EFF05460028EDD0BC42EF
:105410002246314628BF3A46FFF7CAFF314640468A
:10542000FEF724FFE1E73546DFE70000012B2DE919
:10543000F04701D0242B06D9FEF7EAFE16230360BD
:105440000020BDE8F087DFF8E4C00D462E4615F8D1
:10545000014B1CF8047017F00807F7D12D2C32D13E
:105460002C780127B51C002B5BD0102B09D1302CD8
:1054700007D12C7804F0DF04582C4DD16C78102320
:10548000023507F1004808F1FF384FF0000EB8FB75
:10549000F3F9764603FB198AA4F1300CBCF1090F2D
:1054A00016D86446A34224DDBEF1FF3F08D0B145C3
:1054B0001CD301D1A24519DB06FB03464FF0010EB8
:1054C00015F8014BE8E72B2C04BF2C78B51CCAE774
:1054D000A4F1410CBCF1190F01D8373CE2E7A4F16B
:1054E000610CBCF1190F04D8573CDBE74FF0FF3ECD
:1054F000E6E7BEF1FF3F05D122230360464642B9ED
:1055000030469EE707B17642002AF9D0BEF1000F7F
:1055100000D0691E1160F3E73024002BB1D10823BD
:10552000AFE7302CA5D00A23ABE700BF50590008E5
:10553000FFF77CBF2DE9F043364F86460D462846DF
:1055400015F8014B3E5D16F00806F8D12D2C30D130
:105550002C780126851C002B57D0102B09D1302C1C
:1055600007D1287800F0DF00582849D16C78102343
:1055700002354FF0FF380027B8FBF3F803FB08F9BA
:105580006FEA09093846A4F1300CBCF1090F15D8AF
:105590006446A34223DDB7F1FF3F07D080451BD30C
:1055A00001D1A14518DB00FB0340012715F8014B91
:1055B000E9E72B2C04BF2C78851CCCE7A4F1410C27
:1055C000BCF1190F01D8373CE3E7A4F1610CBCF141
:1055D000190F04D8573CDCE74FF0FF37E6E77B1C98
:1055E00006D12223CEF80030384632B9BDE8F08328
:1055F00006B14042002AF9D007B1691E1160F5E7F3
:105600003024002BB5D10823B3E7302CA9D00A23CE
:10561000AFE700BF50590008FFF78CBF51F8043CBA
:10562000181F002BBCBF0B58C0187047F8B500BF3F
:10563000F8BC08BC9E467047F8B500BFF8BC08BC73
:045640009E467047CB
:1056440046590008495900084C5900085B443A205F
:10565400256C642E2530336C645D20004D41583335
:10566400303130322044657669636520496E69744F
:10567400207375636365737366756C21000D004D4B
:1056840041583330313032204465766963652049AE
:105694006E6974206661696C21005B493A20256C4F
:1056A400642E2530336C645D20007265616420646F
:1056B400617461207375636365737366756C21002F
:1056C400686561726420726174653A256C642C208B
:1056D40053704F322076616C75653A256C64005BBB
:1056E400453A20256C642E2530336C645D200072AD
:1056F4006561642064617461206661696C210000E5
:10570400000000000000000102030406070809006D
:10571400000000010203040006101600061016041F
:1057240002080010101004101010021010100800CD
:1057340029001401000214012900000000000000E7
:105744000000000000000000000000000000000055
:105754000000000000000000000000000000000045
:1057640000000000000000000000000000005F5F77
:105774005F60606061616161616262626262636311
:1057840063636363636364646464646464646464DB
:1057940064646464646464646464636363636363CB
:1057A40063636262626262626161616160606060DF
:1057B4005F5F5F5E5E5E5D5D5D5C5C5C5B5B5A5A19
:1057C4005959595858575756565555545453525277
:1057D400515150504F4E4E4D4C4C4B4A4A494848FB
:1057E400474645454443424241403F3E3E3D3C3BA3
:1057F4003A39383837363534333231302F2E2D2C70
:105804002B2A2928272625242322211F1E1D1C1B61
:105814001A19171615141311100F0E0C0B0A090779
:105824000605030201006D61783330313032207394
:10583400656E736F72206E6F20666F756E642100E3
:105844006D61783330313032204465766963652088
:1058540049443D3078253034780025782C25782C3F
:1058640025782C25782C25782C25780041542B6319
:105874006D644366673D256C64002C256C6400767A
:105884006C5F436D6449643D256C642C20766C5FC9
:10589400547970653D256C642C20766C5F50313DE5
:1058A400256C642C20766C5F50323D256C642C2072
:1058B400766C5F50333D256C6400696E666F3A4FB9
:1058C4006E43666744656275673A547970653D2531
:1058D4006C642C50313D256C642C50323D256C6435
:1058E4002C50333D256C642E007761726E3A504122
:1058F40052414D20494E56414C49442100686C4C5C
:1059040000232D302B200065666745464700303163
:105914003233343536373839414243444546003012
:105924003132333435363738396162636465660041
:10593400412D46612D6638393031323334353637AE
:105944005D002B2D003030007858000020202020EE
:10595400202020202028282828282020202020201B
:1059640020202020202020202020202088101010FB
:105974001010101010101010101010100404040453
:1059840004040404040410101010101010414141C8
:105994004141410101010101010101010101010133
:1059A40001010101010101101010101010424242C6
:1059B4004242420202020202020202020202020203
:1059C4000202020202020210101010200000000065
:1059D40000000000000000000000000000000000C3
:1059E40000000000000000000000000000000000B3
:1059F40000000000000000000000000000000000A3
:105A04000000000000000000000000000000000092
:105A14000000000000000000000000000000000082
:105A24000000000000000000000000000000000072
:105A34000000000000000000000000000000000062
:0C5A440000000000000000000000000056
:085A5000D0A8FF7F0100000057
:045A5800250200081B
:045A5C00010200083B
:105A60000024F4000100000010000000D400002019
:105A70000004024000020000040000000004024094
:105A80000001000004000000AE0000000000000063
:105A90000000000000000000000000000000010005
:105AA000C201000001FF0000000000000000000033
:105AB00000000000010000000100000000000000E4
:105AC00003000000F431002000000000F431002049
